{
	"data": {
		"bytecode": {
			"linkReferences": {},
			"object": "60806040526040518060400160405280600281526020016040518060400160405280600781526020017f5061747269636b0000000000000000000000000000000000000000000000000081525081525060015f820151815f0155602082015181600101908161006e91906102bc565b50505034801561007c575f80fd5b5061038b565b5f81519050919050565b7f4e487b71000000000000000000000000000000000000000000000000000000005f52604160045260245ffd5b7f4e487b71000000000000000000000000000000000000000000000000000000005f52602260045260245ffd5b5f60028204905060018216806100fd57607f821691505b6020821081036101105761010f6100b9565b5b50919050565b5f819050815f5260205f209050919050565b5f6020601f8301049050919050565b5f82821b905092915050565b5f600883026101727fffffffffffffffffffffffffffffffffffffffffffffffffffffffffffffffff82610137565b61017c8683610137565b95508019841693508086168417925050509392505050565b5f819050919050565b5f819050919050565b5f6101c06101bb6101b684610194565b61019d565b610194565b9050919050565b5f819050919050565b6101d9836101a6565b6101ed6101e5826101c7565b848454610143565b825550505050565b5f90565b6102016101f5565b61020c8184846101d0565b505050565b5b8181101561022f576102245f826101f9565b600181019050610212565b5050565b601f8211156102745761024581610116565b61024e84610128565b8101602085101561025d578190505b61027161026985610128565b830182610211565b50505b505050565b5f82821c905092915050565b5f6102945f1984600802610279565b1980831691505092915050565b5f6102ac8383610285565b9150826002028217905092915050565b6102c582610082565b67ffffffffffffffff8111156102de576102dd61008c565b5b6102e882546100e6565b6102f3828285610233565b5f60209050601f831160018114610324575f8415610312578287015190505b61031c85826102a1565b865550610383565b601f19841661033286610116565b5f5b8281101561035957848901518255600182019150602085019450602081019050610334565b868310156103765784890151610372601f891682610285565b8355505b6001600288020188555050505b505050505050565b610c0d806103985f395ff3fe608060405234801561000f575f80fd5b5060043610610060575f3560e01c80632e64cec1146100645780636057361d146100825780636f760f411461009e57806377ec2b55146100ce5780637a857f37146100ed5780639e7a13ad1461011d575b5f80fd5b61006c61014e565b6040516100799190610468565b60405180910390f35b61009c600480360381019061009791906104bc565b610156565b005b6100b860048036038101906100b39190610623565b61015f565b6040516100c591906107e1565b60405180910390f35b6100d66102d7565b6040516100e4929190610849565b60405180910390f35b61010760048036038101906101029190610877565b61036e565b6040516101149190610468565b60405180910390f35b610137600480360381019061013291906104bc565b61039b565b604051610145929190610849565b60405180910390f35b5f8054905090565b805f8190555050565b60606003604051806040016040528084815260200185815250908060018154018082558091505060019003905f5260205f2090600202015f909190919091505f820151815f015560208201518160010190816101bb9190610ab8565b505050816004846040516101cf9190610bc1565b9081526020016040518091039020819055506003805480602002602001604051908101604052809291908181526020015f905b828210156102cb578382905f5260205f2090600202016040518060400160405290815f820154815260200160018201805461023c906108eb565b80601f0160208091040260200160405190810160405280929190818152602001828054610268906108eb565b80156102b35780601f1061028a576101008083540402835291602001916102b3565b820191905f5260205f20905b81548152906001019060200180831161029657829003601f168201915b50505050508152505081526020019060010190610202565b50505050905092915050565b6001805f0154908060010180546102ed906108eb565b80601f0160208091040260200160405190810160405280929190818152602001828054610319906108eb565b80156103645780601f1061033b57610100808354040283529160200191610364565b820191905f5260205f20905b81548152906001019060200180831161034757829003601f168201915b5050505050905082565b6004818051602081018201805184825260208301602085012081835280955050505050505f915090505481565b600381815481106103aa575f80fd5b905f5260205f2090600202015f91509050805f0154908060010180546103cf906108eb565b80601f01602080910402602001604051908101604052809291908181526020018280546103fb906108eb565b80156104465780601f1061041d57610100808354040283529160200191610446565b820191905f5260205f20905b81548152906001019060200180831161042957829003601f168201915b5050505050905082565b5f819050919050565b61046281610450565b82525050565b5f60208201905061047b5f830184610459565b92915050565b5f604051905090565b5f80fd5b5f80fd5b61049b81610450565b81146104a5575f80fd5b50565b5f813590506104b681610492565b92915050565b5f602082840312156104d1576104d061048a565b5b5f6104de848285016104a8565b91505092915050565b5f80fd5b5f80fd5b5f601f19601f8301169050919050565b7f4e487b71000000000000000000000000000000000000000000000000000000005f52604160045260245ffd5b610535826104ef565b810181811067ffffffffffffffff82111715610554576105536104ff565b5b80604052505050565b5f610566610481565b9050610572828261052c565b919050565b5f67ffffffffffffffff821115610591576105906104ff565b5b61059a826104ef565b9050602081019050919050565b828183375f83830152505050565b5f6105c76105c284610577565b61055d565b9050828152602081018484840111156105e3576105e26104eb565b5b6105ee8482856105a7565b509392505050565b5f82601f83011261060a576106096104e7565b5b813561061a8482602086016105b5565b91505092915050565b5f80604083850312156106395761063861048a565b5b5f83013567ffffffffffffffff8111156106565761065561048e565b5b610662858286016105f6565b9250506020610673858286016104a8565b9150509250929050565b5f81519050919050565b5f82825260208201905092915050565b5f819050602082019050919050565b6106af81610450565b82525050565b5f81519050919050565b5f82825260208201905092915050565b8281835e5f83830152505050565b5f6106e7826106b5565b6106f181856106bf565b93506107018185602086016106cf565b61070a816104ef565b840191505092915050565b5f604083015f83015161072a5f8601826106a6565b506020830151848203602086015261074282826106dd565b9150508091505092915050565b5f61075a8383610715565b905092915050565b5f602082019050919050565b5f6107788261067d565b6107828185610687565b93508360208202850161079485610697565b805f5b858110156107cf57848403895281516107b0858261074f565b94506107bb83610762565b925060208a01995050600181019050610797565b50829750879550505050505092915050565b5f6020820190508181035f8301526107f9818461076e565b905092915050565b5f82825260208201905092915050565b5f61081b826106b5565b6108258185610801565b93506108358185602086016106cf565b61083e816104ef565b840191505092915050565b5f60408201905061085c5f830185610459565b818103602083015261086e8184610811565b90509392505050565b5f6020828403121561088c5761088b61048a565b5b5f82013567ffffffffffffffff8111156108a9576108a861048e565b5b6108b5848285016105f6565b91505092915050565b7f4e487b71000000000000000000000000000000000000000000000000000000005f52602260045260245ffd5b5f600282049050600182168061090257607f821691505b602082108103610915576109146108be565b5b50919050565b5f819050815f5260205f209050919050565b5f6020601f8301049050919050565b5f82821b905092915050565b5f600883026109777fffffffffffffffffffffffffffffffffffffffffffffffffffffffffffffffff8261093c565b610981868361093c565b95508019841693508086168417925050509392505050565b5f819050919050565b5f6109bc6109b76109b284610450565b610999565b610450565b9050919050565b5f819050919050565b6109d5836109a2565b6109e96109e1826109c3565b848454610948565b825550505050565b5f90565b6109fd6109f1565b610a088184846109cc565b505050565b5b81811015610a2b57610a205f826109f5565b600181019050610a0e565b5050565b601f821115610a7057610a418161091b565b610a4a8461092d565b81016020851015610a59578190505b610a6d610a658561092d565b830182610a0d565b50505b505050565b5f82821c905092915050565b5f610a905f1984600802610a75565b1980831691505092915050565b5f610aa88383610a81565b9150826002028217905092915050565b610ac1826106b5565b67ffffffffffffffff811115610ada57610ad96104ff565b5b610ae482546108eb565b610aef828285610a2f565b5f60209050601f831160018114610b20575f8415610b0e578287015190505b610b188582610a9d565b865550610b7f565b601f198416610b2e8661091b565b5f5b82811015610b5557848901518255600182019150602085019450602081019050610b30565b86831015610b725784890151610b6e601f891682610a81565b8355505b6001600288020188555050505b505050505050565b5f81905092915050565b5f610b9b826106b5565b610ba58185610b87565b9350610bb58185602086016106cf565b80840191505092915050565b5f610bcc8284610b91565b91508190509291505056fea2646970667358221220f8f262e2fcaf3b222fac584b7cbee7ac68c71018160121101a8ce94092b0f39964736f6c63430008190033",
			"opcodes": "PUSH1 0x80 PUSH1 0x40 MSTORE PUSH1 0x40 MLOAD DUP1 PUSH1 0x40 ADD PUSH1 0x40 MSTORE DUP1 PUSH1 0x2 DUP2 MSTORE PUSH1 0x20 ADD PUSH1 0x40 MLOAD DUP1 PUSH1 0x40 ADD PUSH1 0x40 MSTORE DUP1 PUSH1 0x7 DUP2 MSTORE PUSH1 0x20 ADD PUSH32 0x5061747269636B00000000000000000000000000000000000000000000000000 DUP2 MSTORE POP DUP2 MSTORE POP PUSH1 0x1 PUSH0 DUP3 ADD MLOAD DUP2 PUSH0 ADD SSTORE PUSH1 0x20 DUP3 ADD MLOAD DUP2 PUSH1 0x1 ADD SWAP1 DUP2 PUSH2 0x6E SWAP2 SWAP1 PUSH2 0x2BC JUMP JUMPDEST POP POP POP CALLVALUE DUP1 ISZERO PUSH2 0x7C JUMPI PUSH0 DUP1 REVERT JUMPDEST POP PUSH2 0x38B JUMP JUMPDEST PUSH0 DUP2 MLOAD SWAP1 POP SWAP2 SWAP1 POP JUMP JUMPDEST PUSH32 0x4E487B7100000000000000000000000000000000000000000000000000000000 PUSH0 MSTORE PUSH1 0x41 PUSH1 0x4 MSTORE PUSH1 0x24 PUSH0 REVERT JUMPDEST PUSH32 0x4E487B7100000000000000000000000000000000000000000000000000000000 PUSH0 MSTORE PUSH1 0x22 PUSH1 0x4 MSTORE PUSH1 0x24 PUSH0 REVERT JUMPDEST PUSH0 PUSH1 0x2 DUP3 DIV SWAP1 POP PUSH1 0x1 DUP3 AND DUP1 PUSH2 0xFD JUMPI PUSH1 0x7F DUP3 AND SWAP2 POP JUMPDEST PUSH1 0x20 DUP3 LT DUP2 SUB PUSH2 0x110 JUMPI PUSH2 0x10F PUSH2 0xB9 JUMP JUMPDEST JUMPDEST POP SWAP2 SWAP1 POP JUMP JUMPDEST PUSH0 DUP2 SWAP1 POP DUP2 PUSH0 MSTORE PUSH1 0x20 PUSH0 KECCAK256 SWAP1 POP SWAP2 SWAP1 POP JUMP JUMPDEST PUSH0 PUSH1 0x20 PUSH1 0x1F DUP4 ADD DIV SWAP1 POP SWAP2 SWAP1 POP JUMP JUMPDEST PUSH0 DUP3 DUP3 SHL SWAP1 POP SWAP3 SWAP2 POP POP JUMP JUMPDEST PUSH0 PUSH1 0x8 DUP4 MUL PUSH2 0x172 PUSH32 0xFFFFFFFFFFFFFFFFFFFFFFFFFFFFFFFFFFFFFFFFFFFFFFFFFFFFFFFFFFFFFFFF DUP3 PUSH2 0x137 JUMP JUMPDEST PUSH2 0x17C DUP7 DUP4 PUSH2 0x137 JUMP JUMPDEST SWAP6 POP DUP1 NOT DUP5 AND SWAP4 POP DUP1 DUP7 AND DUP5 OR SWAP3 POP POP POP SWAP4 SWAP3 POP POP POP JUMP JUMPDEST PUSH0 DUP2 SWAP1 POP SWAP2 SWAP1 POP JUMP JUMPDEST PUSH0 DUP2 SWAP1 POP SWAP2 SWAP1 POP JUMP JUMPDEST PUSH0 PUSH2 0x1C0 PUSH2 0x1BB PUSH2 0x1B6 DUP5 PUSH2 0x194 JUMP JUMPDEST PUSH2 0x19D JUMP JUMPDEST PUSH2 0x194 JUMP JUMPDEST SWAP1 POP SWAP2 SWAP1 POP JUMP JUMPDEST PUSH0 DUP2 SWAP1 POP SWAP2 SWAP1 POP JUMP JUMPDEST PUSH2 0x1D9 DUP4 PUSH2 0x1A6 JUMP JUMPDEST PUSH2 0x1ED PUSH2 0x1E5 DUP3 PUSH2 0x1C7 JUMP JUMPDEST DUP5 DUP5 SLOAD PUSH2 0x143 JUMP JUMPDEST DUP3 SSTORE POP POP POP POP JUMP JUMPDEST PUSH0 SWAP1 JUMP JUMPDEST PUSH2 0x201 PUSH2 0x1F5 JUMP JUMPDEST PUSH2 0x20C DUP2 DUP5 DUP5 PUSH2 0x1D0 JUMP JUMPDEST POP POP POP JUMP JUMPDEST JUMPDEST DUP2 DUP2 LT ISZERO PUSH2 0x22F JUMPI PUSH2 0x224 PUSH0 DUP3 PUSH2 0x1F9 JUMP JUMPDEST PUSH1 0x1 DUP2 ADD SWAP1 POP PUSH2 0x212 JUMP JUMPDEST POP POP JUMP JUMPDEST PUSH1 0x1F DUP3 GT ISZERO PUSH2 0x274 JUMPI PUSH2 0x245 DUP2 PUSH2 0x116 JUMP JUMPDEST PUSH2 0x24E DUP5 PUSH2 0x128 JUMP JUMPDEST DUP2 ADD PUSH1 0x20 DUP6 LT ISZERO PUSH2 0x25D JUMPI DUP2 SWAP1 POP JUMPDEST PUSH2 0x271 PUSH2 0x269 DUP6 PUSH2 0x128 JUMP JUMPDEST DUP4 ADD DUP3 PUSH2 0x211 JUMP JUMPDEST POP POP JUMPDEST POP POP POP JUMP JUMPDEST PUSH0 DUP3 DUP3 SHR SWAP1 POP SWAP3 SWAP2 POP POP JUMP JUMPDEST PUSH0 PUSH2 0x294 PUSH0 NOT DUP5 PUSH1 0x8 MUL PUSH2 0x279 JUMP JUMPDEST NOT DUP1 DUP4 AND SWAP2 POP POP SWAP3 SWAP2 POP POP JUMP JUMPDEST PUSH0 PUSH2 0x2AC DUP4 DUP4 PUSH2 0x285 JUMP JUMPDEST SWAP2 POP DUP3 PUSH1 0x2 MUL DUP3 OR SWAP1 POP SWAP3 SWAP2 POP POP JUMP JUMPDEST PUSH2 0x2C5 DUP3 PUSH2 0x82 JUMP JUMPDEST PUSH8 0xFFFFFFFFFFFFFFFF DUP2 GT ISZERO PUSH2 0x2DE JUMPI PUSH2 0x2DD PUSH2 0x8C JUMP JUMPDEST JUMPDEST PUSH2 0x2E8 DUP3 SLOAD PUSH2 0xE6 JUMP JUMPDEST PUSH2 0x2F3 DUP3 DUP3 DUP6 PUSH2 0x233 JUMP JUMPDEST PUSH0 PUSH1 0x20 SWAP1 POP PUSH1 0x1F DUP4 GT PUSH1 0x1 DUP2 EQ PUSH2 0x324 JUMPI PUSH0 DUP5 ISZERO PUSH2 0x312 JUMPI DUP3 DUP8 ADD MLOAD SWAP1 POP JUMPDEST PUSH2 0x31C DUP6 DUP3 PUSH2 0x2A1 JUMP JUMPDEST DUP7 SSTORE POP PUSH2 0x383 JUMP JUMPDEST PUSH1 0x1F NOT DUP5 AND PUSH2 0x332 DUP7 PUSH2 0x116 JUMP JUMPDEST PUSH0 JUMPDEST DUP3 DUP2 LT ISZERO PUSH2 0x359 JUMPI DUP5 DUP10 ADD MLOAD DUP3 SSTORE PUSH1 0x1 DUP3 ADD SWAP2 POP PUSH1 0x20 DUP6 ADD SWAP5 POP PUSH1 0x20 DUP2 ADD SWAP1 POP PUSH2 0x334 JUMP JUMPDEST DUP7 DUP4 LT ISZERO PUSH2 0x376 JUMPI DUP5 DUP10 ADD MLOAD PUSH2 0x372 PUSH1 0x1F DUP10 AND DUP3 PUSH2 0x285 JUMP JUMPDEST DUP4 SSTORE POP JUMPDEST PUSH1 0x1 PUSH1 0x2 DUP9 MUL ADD DUP9 SSTORE POP POP POP JUMPDEST POP POP POP POP POP POP JUMP JUMPDEST PUSH2 0xC0D DUP1 PUSH2 0x398 PUSH0 CODECOPY PUSH0 RETURN INVALID PUSH1 0x80 PUSH1 0x40 MSTORE CALLVALUE DUP1 ISZERO PUSH2 0xF JUMPI PUSH0 DUP1 REVERT JUMPDEST POP PUSH1 0x4 CALLDATASIZE LT PUSH2 0x60 JUMPI PUSH0 CALLDATALOAD PUSH1 0xE0 SHR DUP1 PUSH4 0x2E64CEC1 EQ PUSH2 0x64 JUMPI DUP1 PUSH4 0x6057361D EQ PUSH2 0x82 JUMPI DUP1 PUSH4 0x6F760F41 EQ PUSH2 0x9E JUMPI DUP1 PUSH4 0x77EC2B55 EQ PUSH2 0xCE JUMPI DUP1 PUSH4 0x7A857F37 EQ PUSH2 0xED JUMPI DUP1 PUSH4 0x9E7A13AD EQ PUSH2 0x11D JUMPI JUMPDEST PUSH0 DUP1 REVERT JUMPDEST PUSH2 0x6C PUSH2 0x14E JUMP JUMPDEST PUSH1 0x40 MLOAD PUSH2 0x79 SWAP2 SWAP1 PUSH2 0x468 JUMP JUMPDEST PUSH1 0x40 MLOAD DUP1 SWAP2 SUB SWAP1 RETURN JUMPDEST PUSH2 0x9C PUSH1 0x4 DUP1 CALLDATASIZE SUB DUP2 ADD SWAP1 PUSH2 0x97 SWAP2 SWAP1 PUSH2 0x4BC JUMP JUMPDEST PUSH2 0x156 JUMP JUMPDEST STOP JUMPDEST PUSH2 0xB8 PUSH1 0x4 DUP1 CALLDATASIZE SUB DUP2 ADD SWAP1 PUSH2 0xB3 SWAP2 SWAP1 PUSH2 0x623 JUMP JUMPDEST PUSH2 0x15F JUMP JUMPDEST PUSH1 0x40 MLOAD PUSH2 0xC5 SWAP2 SWAP1 PUSH2 0x7E1 JUMP JUMPDEST PUSH1 0x40 MLOAD DUP1 SWAP2 SUB SWAP1 RETURN JUMPDEST PUSH2 0xD6 PUSH2 0x2D7 JUMP JUMPDEST PUSH1 0x40 MLOAD PUSH2 0xE4 SWAP3 SWAP2 SWAP1 PUSH2 0x849 JUMP JUMPDEST PUSH1 0x40 MLOAD DUP1 SWAP2 SUB SWAP1 RETURN JUMPDEST PUSH2 0x107 PUSH1 0x4 DUP1 CALLDATASIZE SUB DUP2 ADD SWAP1 PUSH2 0x102 SWAP2 SWAP1 PUSH2 0x877 JUMP JUMPDEST PUSH2 0x36E JUMP JUMPDEST PUSH1 0x40 MLOAD PUSH2 0x114 SWAP2 SWAP1 PUSH2 0x468 JUMP JUMPDEST PUSH1 0x40 MLOAD DUP1 SWAP2 SUB SWAP1 RETURN JUMPDEST PUSH2 0x137 PUSH1 0x4 DUP1 CALLDATASIZE SUB DUP2 ADD SWAP1 PUSH2 0x132 SWAP2 SWAP1 PUSH2 0x4BC JUMP JUMPDEST PUSH2 0x39B JUMP JUMPDEST PUSH1 0x40 MLOAD PUSH2 0x145 SWAP3 SWAP2 SWAP1 PUSH2 0x849 JUMP JUMPDEST PUSH1 0x40 MLOAD DUP1 SWAP2 SUB SWAP1 RETURN JUMPDEST PUSH0 DUP1 SLOAD SWAP1 POP SWAP1 JUMP JUMPDEST DUP1 PUSH0 DUP2 SWAP1 SSTORE POP POP JUMP JUMPDEST PUSH1 0x60 PUSH1 0x3 PUSH1 0x40 MLOAD DUP1 PUSH1 0x40 ADD PUSH1 0x40 MSTORE DUP1 DUP5 DUP2 MSTORE PUSH1 0x20 ADD DUP6 DUP2 MSTORE POP SWAP1 DUP1 PUSH1 0x1 DUP2 SLOAD ADD DUP1 DUP3 SSTORE DUP1 SWAP2 POP POP PUSH1 0x1 SWAP1 SUB SWAP1 PUSH0 MSTORE PUSH1 0x20 PUSH0 KECCAK256 SWAP1 PUSH1 0x2 MUL ADD PUSH0 SWAP1 SWAP2 SWAP1 SWAP2 SWAP1 SWAP2 POP PUSH0 DUP3 ADD MLOAD DUP2 PUSH0 ADD SSTORE PUSH1 0x20 DUP3 ADD MLOAD DUP2 PUSH1 0x1 ADD SWAP1 DUP2 PUSH2 0x1BB SWAP2 SWAP1 PUSH2 0xAB8 JUMP JUMPDEST POP POP POP DUP2 PUSH1 0x4 DUP5 PUSH1 0x40 MLOAD PUSH2 0x1CF SWAP2 SWAP1 PUSH2 0xBC1 JUMP JUMPDEST SWAP1 DUP2 MSTORE PUSH1 0x20 ADD PUSH1 0x40 MLOAD DUP1 SWAP2 SUB SWAP1 KECCAK256 DUP2 SWAP1 SSTORE POP PUSH1 0x3 DUP1 SLOAD DUP1 PUSH1 0x20 MUL PUSH1 0x20 ADD PUSH1 0x40 MLOAD SWAP1 DUP2 ADD PUSH1 0x40 MSTORE DUP1 SWAP3 SWAP2 SWAP1 DUP2 DUP2 MSTORE PUSH1 0x20 ADD PUSH0 SWAP1 JUMPDEST DUP3 DUP3 LT ISZERO PUSH2 0x2CB JUMPI DUP4 DUP3 SWAP1 PUSH0 MSTORE PUSH1 0x20 PUSH0 KECCAK256 SWAP1 PUSH1 0x2 MUL ADD PUSH1 0x40 MLOAD DUP1 PUSH1 0x40 ADD PUSH1 0x40 MSTORE SWAP1 DUP2 PUSH0 DUP3 ADD SLOAD DUP2 MSTORE PUSH1 0x20 ADD PUSH1 0x1 DUP3 ADD DUP1 SLOAD PUSH2 0x23C SWAP1 PUSH2 0x8EB JUMP JUMPDEST DUP1 PUSH1 0x1F ADD PUSH1 0x20 DUP1 SWAP2 DIV MUL PUSH1 0x20 ADD PUSH1 0x40 MLOAD SWAP1 DUP2 ADD PUSH1 0x40 MSTORE DUP1 SWAP3 SWAP2 SWAP1 DUP2 DUP2 MSTORE PUSH1 0x20 ADD DUP3 DUP1 SLOAD PUSH2 0x268 SWAP1 PUSH2 0x8EB JUMP JUMPDEST DUP1 ISZERO PUSH2 0x2B3 JUMPI DUP1 PUSH1 0x1F LT PUSH2 0x28A JUMPI PUSH2 0x100 DUP1 DUP4 SLOAD DIV MUL DUP4 MSTORE SWAP2 PUSH1 0x20 ADD SWAP2 PUSH2 0x2B3 JUMP JUMPDEST DUP3 ADD SWAP2 SWAP1 PUSH0 MSTORE PUSH1 0x20 PUSH0 KECCAK256 SWAP1 JUMPDEST DUP2 SLOAD DUP2 MSTORE SWAP1 PUSH1 0x1 ADD SWAP1 PUSH1 0x20 ADD DUP1 DUP4 GT PUSH2 0x296 JUMPI DUP3 SWAP1 SUB PUSH1 0x1F AND DUP3 ADD SWAP2 JUMPDEST POP POP POP POP POP DUP2 MSTORE POP POP DUP2 MSTORE PUSH1 0x20 ADD SWAP1 PUSH1 0x1 ADD SWAP1 PUSH2 0x202 JUMP JUMPDEST POP POP POP POP SWAP1 POP SWAP3 SWAP2 POP POP JUMP JUMPDEST PUSH1 0x1 DUP1 PUSH0 ADD SLOAD SWAP1 DUP1 PUSH1 0x1 ADD DUP1 SLOAD PUSH2 0x2ED SWAP1 PUSH2 0x8EB JUMP JUMPDEST DUP1 PUSH1 0x1F ADD PUSH1 0x20 DUP1 SWAP2 DIV MUL PUSH1 0x20 ADD PUSH1 0x40 MLOAD SWAP1 DUP2 ADD PUSH1 0x40 MSTORE DUP1 SWAP3 SWAP2 SWAP1 DUP2 DUP2 MSTORE PUSH1 0x20 ADD DUP3 DUP1 SLOAD PUSH2 0x319 SWAP1 PUSH2 0x8EB JUMP JUMPDEST DUP1 ISZERO PUSH2 0x364 JUMPI DUP1 PUSH1 0x1F LT PUSH2 0x33B JUMPI PUSH2 0x100 DUP1 DUP4 SLOAD DIV MUL DUP4 MSTORE SWAP2 PUSH1 0x20 ADD SWAP2 PUSH2 0x364 JUMP JUMPDEST DUP3 ADD SWAP2 SWAP1 PUSH0 MSTORE PUSH1 0x20 PUSH0 KECCAK256 SWAP1 JUMPDEST DUP2 SLOAD DUP2 MSTORE SWAP1 PUSH1 0x1 ADD SWAP1 PUSH1 0x20 ADD DUP1 DUP4 GT PUSH2 0x347 JUMPI DUP3 SWAP1 SUB PUSH1 0x1F AND DUP3 ADD SWAP2 JUMPDEST POP POP POP POP POP SWAP1 POP DUP3 JUMP JUMPDEST PUSH1 0x4 DUP2 DUP1 MLOAD PUSH1 0x20 DUP2 ADD DUP3 ADD DUP1 MLOAD DUP5 DUP3 MSTORE PUSH1 0x20 DUP4 ADD PUSH1 0x20 DUP6 ADD KECCAK256 DUP2 DUP4 MSTORE DUP1 SWAP6 POP POP POP POP POP POP PUSH0 SWAP2 POP SWAP1 POP SLOAD DUP2 JUMP JUMPDEST PUSH1 0x3 DUP2 DUP2 SLOAD DUP2 LT PUSH2 0x3AA JUMPI PUSH0 DUP1 REVERT JUMPDEST SWAP1 PUSH0 MSTORE PUSH1 0x20 PUSH0 KECCAK256 SWAP1 PUSH1 0x2 MUL ADD PUSH0 SWAP2 POP SWAP1 POP DUP1 PUSH0 ADD SLOAD SWAP1 DUP1 PUSH1 0x1 ADD DUP1 SLOAD PUSH2 0x3CF SWAP1 PUSH2 0x8EB JUMP JUMPDEST DUP1 PUSH1 0x1F ADD PUSH1 0x20 DUP1 SWAP2 DIV MUL PUSH1 0x20 ADD PUSH1 0x40 MLOAD SWAP1 DUP2 ADD PUSH1 0x40 MSTORE DUP1 SWAP3 SWAP2 SWAP1 DUP2 DUP2 MSTORE PUSH1 0x20 ADD DUP3 DUP1 SLOAD PUSH2 0x3FB SWAP1 PUSH2 0x8EB JUMP JUMPDEST DUP1 ISZERO PUSH2 0x446 JUMPI DUP1 PUSH1 0x1F LT PUSH2 0x41D JUMPI PUSH2 0x100 DUP1 DUP4 SLOAD DIV MUL DUP4 MSTORE SWAP2 PUSH1 0x20 ADD SWAP2 PUSH2 0x446 JUMP JUMPDEST DUP3 ADD SWAP2 SWAP1 PUSH0 MSTORE PUSH1 0x20 PUSH0 KECCAK256 SWAP1 JUMPDEST DUP2 SLOAD DUP2 MSTORE SWAP1 PUSH1 0x1 ADD SWAP1 PUSH1 0x20 ADD DUP1 DUP4 GT PUSH2 0x429 JUMPI DUP3 SWAP1 SUB PUSH1 0x1F AND DUP3 ADD SWAP2 JUMPDEST POP POP POP POP POP SWAP1 POP DUP3 JUMP JUMPDEST PUSH0 DUP2 SWAP1 POP SWAP2 SWAP1 POP JUMP JUMPDEST PUSH2 0x462 DUP2 PUSH2 0x450 JUMP JUMPDEST DUP3 MSTORE POP POP JUMP JUMPDEST PUSH0 PUSH1 0x20 DUP3 ADD SWAP1 POP PUSH2 0x47B PUSH0 DUP4 ADD DUP5 PUSH2 0x459 JUMP JUMPDEST SWAP3 SWAP2 POP POP JUMP JUMPDEST PUSH0 PUSH1 0x40 MLOAD SWAP1 POP SWAP1 JUMP JUMPDEST PUSH0 DUP1 REVERT JUMPDEST PUSH0 DUP1 REVERT JUMPDEST PUSH2 0x49B DUP2 PUSH2 0x450 JUMP JUMPDEST DUP2 EQ PUSH2 0x4A5 JUMPI PUSH0 DUP1 REVERT JUMPDEST POP JUMP JUMPDEST PUSH0 DUP2 CALLDATALOAD SWAP1 POP PUSH2 0x4B6 DUP2 PUSH2 0x492 JUMP JUMPDEST SWAP3 SWAP2 POP POP JUMP JUMPDEST PUSH0 PUSH1 0x20 DUP3 DUP5 SUB SLT ISZERO PUSH2 0x4D1 JUMPI PUSH2 0x4D0 PUSH2 0x48A JUMP JUMPDEST JUMPDEST PUSH0 PUSH2 0x4DE DUP5 DUP3 DUP6 ADD PUSH2 0x4A8 JUMP JUMPDEST SWAP2 POP POP SWAP3 SWAP2 POP POP JUMP JUMPDEST PUSH0 DUP1 REVERT JUMPDEST PUSH0 DUP1 REVERT JUMPDEST PUSH0 PUSH1 0x1F NOT PUSH1 0x1F DUP4 ADD AND SWAP1 POP SWAP2 SWAP1 POP JUMP JUMPDEST PUSH32 0x4E487B7100000000000000000000000000000000000000000000000000000000 PUSH0 MSTORE PUSH1 0x41 PUSH1 0x4 MSTORE PUSH1 0x24 PUSH0 REVERT JUMPDEST PUSH2 0x535 DUP3 PUSH2 0x4EF JUMP JUMPDEST DUP2 ADD DUP2 DUP2 LT PUSH8 0xFFFFFFFFFFFFFFFF DUP3 GT OR ISZERO PUSH2 0x554 JUMPI PUSH2 0x553 PUSH2 0x4FF JUMP JUMPDEST JUMPDEST DUP1 PUSH1 0x40 MSTORE POP POP POP JUMP JUMPDEST PUSH0 PUSH2 0x566 PUSH2 0x481 JUMP JUMPDEST SWAP1 POP PUSH2 0x572 DUP3 DUP3 PUSH2 0x52C JUMP JUMPDEST SWAP2 SWAP1 POP JUMP JUMPDEST PUSH0 PUSH8 0xFFFFFFFFFFFFFFFF DUP3 GT ISZERO PUSH2 0x591 JUMPI PUSH2 0x590 PUSH2 0x4FF JUMP JUMPDEST JUMPDEST PUSH2 0x59A DUP3 PUSH2 0x4EF JUMP JUMPDEST SWAP1 POP PUSH1 0x20 DUP2 ADD SWAP1 POP SWAP2 SWAP1 POP JUMP JUMPDEST DUP3 DUP2 DUP4 CALLDATACOPY PUSH0 DUP4 DUP4 ADD MSTORE POP POP POP JUMP JUMPDEST PUSH0 PUSH2 0x5C7 PUSH2 0x5C2 DUP5 PUSH2 0x577 JUMP JUMPDEST PUSH2 0x55D JUMP JUMPDEST SWAP1 POP DUP3 DUP2 MSTORE PUSH1 0x20 DUP2 ADD DUP5 DUP5 DUP5 ADD GT ISZERO PUSH2 0x5E3 JUMPI PUSH2 0x5E2 PUSH2 0x4EB JUMP JUMPDEST JUMPDEST PUSH2 0x5EE DUP5 DUP3 DUP6 PUSH2 0x5A7 JUMP JUMPDEST POP SWAP4 SWAP3 POP POP POP JUMP JUMPDEST PUSH0 DUP3 PUSH1 0x1F DUP4 ADD SLT PUSH2 0x60A JUMPI PUSH2 0x609 PUSH2 0x4E7 JUMP JUMPDEST JUMPDEST DUP2 CALLDATALOAD PUSH2 0x61A DUP5 DUP3 PUSH1 0x20 DUP7 ADD PUSH2 0x5B5 JUMP JUMPDEST SWAP2 POP POP SWAP3 SWAP2 POP POP JUMP JUMPDEST PUSH0 DUP1 PUSH1 0x40 DUP4 DUP6 SUB SLT ISZERO PUSH2 0x639 JUMPI PUSH2 0x638 PUSH2 0x48A JUMP JUMPDEST JUMPDEST PUSH0 DUP4 ADD CALLDATALOAD PUSH8 0xFFFFFFFFFFFFFFFF DUP2 GT ISZERO PUSH2 0x656 JUMPI PUSH2 0x655 PUSH2 0x48E JUMP JUMPDEST JUMPDEST PUSH2 0x662 DUP6 DUP3 DUP7 ADD PUSH2 0x5F6 JUMP JUMPDEST SWAP3 POP POP PUSH1 0x20 PUSH2 0x673 DUP6 DUP3 DUP7 ADD PUSH2 0x4A8 JUMP JUMPDEST SWAP2 POP POP SWAP3 POP SWAP3 SWAP1 POP JUMP JUMPDEST PUSH0 DUP2 MLOAD SWAP1 POP SWAP2 SWAP1 POP JUMP JUMPDEST PUSH0 DUP3 DUP3 MSTORE PUSH1 0x20 DUP3 ADD SWAP1 POP SWAP3 SWAP2 POP POP JUMP JUMPDEST PUSH0 DUP2 SWAP1 POP PUSH1 0x20 DUP3 ADD SWAP1 POP SWAP2 SWAP1 POP JUMP JUMPDEST PUSH2 0x6AF DUP2 PUSH2 0x450 JUMP JUMPDEST DUP3 MSTORE POP POP JUMP JUMPDEST PUSH0 DUP2 MLOAD SWAP1 POP SWAP2 SWAP1 POP JUMP JUMPDEST PUSH0 DUP3 DUP3 MSTORE PUSH1 0x20 DUP3 ADD SWAP1 POP SWAP3 SWAP2 POP POP JUMP JUMPDEST DUP3 DUP2 DUP4 MCOPY PUSH0 DUP4 DUP4 ADD MSTORE POP POP POP JUMP JUMPDEST PUSH0 PUSH2 0x6E7 DUP3 PUSH2 0x6B5 JUMP JUMPDEST PUSH2 0x6F1 DUP2 DUP6 PUSH2 0x6BF JUMP JUMPDEST SWAP4 POP PUSH2 0x701 DUP2 DUP6 PUSH1 0x20 DUP7 ADD PUSH2 0x6CF JUMP JUMPDEST PUSH2 0x70A DUP2 PUSH2 0x4EF JUMP JUMPDEST DUP5 ADD SWAP2 POP POP SWAP3 SWAP2 POP POP JUMP JUMPDEST PUSH0 PUSH1 0x40 DUP4 ADD PUSH0 DUP4 ADD MLOAD PUSH2 0x72A PUSH0 DUP7 ADD DUP3 PUSH2 0x6A6 JUMP JUMPDEST POP PUSH1 0x20 DUP4 ADD MLOAD DUP5 DUP3 SUB PUSH1 0x20 DUP7 ADD MSTORE PUSH2 0x742 DUP3 DUP3 PUSH2 0x6DD JUMP JUMPDEST SWAP2 POP POP DUP1 SWAP2 POP POP SWAP3 SWAP2 POP POP JUMP JUMPDEST PUSH0 PUSH2 0x75A DUP4 DUP4 PUSH2 0x715 JUMP JUMPDEST SWAP1 POP SWAP3 SWAP2 POP POP JUMP JUMPDEST PUSH0 PUSH1 0x20 DUP3 ADD SWAP1 POP SWAP2 SWAP1 POP JUMP JUMPDEST PUSH0 PUSH2 0x778 DUP3 PUSH2 0x67D JUMP JUMPDEST PUSH2 0x782 DUP2 DUP6 PUSH2 0x687 JUMP JUMPDEST SWAP4 POP DUP4 PUSH1 0x20 DUP3 MUL DUP6 ADD PUSH2 0x794 DUP6 PUSH2 0x697 JUMP JUMPDEST DUP1 PUSH0 JUMPDEST DUP6 DUP2 LT ISZERO PUSH2 0x7CF JUMPI DUP5 DUP5 SUB DUP10 MSTORE DUP2 MLOAD PUSH2 0x7B0 DUP6 DUP3 PUSH2 0x74F JUMP JUMPDEST SWAP5 POP PUSH2 0x7BB DUP4 PUSH2 0x762 JUMP JUMPDEST SWAP3 POP PUSH1 0x20 DUP11 ADD SWAP10 POP POP PUSH1 0x1 DUP2 ADD SWAP1 POP PUSH2 0x797 JUMP JUMPDEST POP DUP3 SWAP8 POP DUP8 SWAP6 POP POP POP POP POP POP SWAP3 SWAP2 POP POP JUMP JUMPDEST PUSH0 PUSH1 0x20 DUP3 ADD SWAP1 POP DUP2 DUP2 SUB PUSH0 DUP4 ADD MSTORE PUSH2 0x7F9 DUP2 DUP5 PUSH2 0x76E JUMP JUMPDEST SWAP1 POP SWAP3 SWAP2 POP POP JUMP JUMPDEST PUSH0 DUP3 DUP3 MSTORE PUSH1 0x20 DUP3 ADD SWAP1 POP SWAP3 SWAP2 POP POP JUMP JUMPDEST PUSH0 PUSH2 0x81B DUP3 PUSH2 0x6B5 JUMP JUMPDEST PUSH2 0x825 DUP2 DUP6 PUSH2 0x801 JUMP JUMPDEST SWAP4 POP PUSH2 0x835 DUP2 DUP6 PUSH1 0x20 DUP7 ADD PUSH2 0x6CF JUMP JUMPDEST PUSH2 0x83E DUP2 PUSH2 0x4EF JUMP JUMPDEST DUP5 ADD SWAP2 POP POP SWAP3 SWAP2 POP POP JUMP JUMPDEST PUSH0 PUSH1 0x40 DUP3 ADD SWAP1 POP PUSH2 0x85C PUSH0 DUP4 ADD DUP6 PUSH2 0x459 JUMP JUMPDEST DUP2 DUP2 SUB PUSH1 0x20 DUP4 ADD MSTORE PUSH2 0x86E DUP2 DUP5 PUSH2 0x811 JUMP JUMPDEST SWAP1 POP SWAP4 SWAP3 POP POP POP JUMP JUMPDEST PUSH0 PUSH1 0x20 DUP3 DUP5 SUB SLT ISZERO PUSH2 0x88C JUMPI PUSH2 0x88B PUSH2 0x48A JUMP JUMPDEST JUMPDEST PUSH0 DUP3 ADD CALLDATALOAD PUSH8 0xFFFFFFFFFFFFFFFF DUP2 GT ISZERO PUSH2 0x8A9 JUMPI PUSH2 0x8A8 PUSH2 0x48E JUMP JUMPDEST JUMPDEST PUSH2 0x8B5 DUP5 DUP3 DUP6 ADD PUSH2 0x5F6 JUMP JUMPDEST SWAP2 POP POP SWAP3 SWAP2 POP POP JUMP JUMPDEST PUSH32 0x4E487B7100000000000000000000000000000000000000000000000000000000 PUSH0 MSTORE PUSH1 0x22 PUSH1 0x4 MSTORE PUSH1 0x24 PUSH0 REVERT JUMPDEST PUSH0 PUSH1 0x2 DUP3 DIV SWAP1 POP PUSH1 0x1 DUP3 AND DUP1 PUSH2 0x902 JUMPI PUSH1 0x7F DUP3 AND SWAP2 POP JUMPDEST PUSH1 0x20 DUP3 LT DUP2 SUB PUSH2 0x915 JUMPI PUSH2 0x914 PUSH2 0x8BE JUMP JUMPDEST JUMPDEST POP SWAP2 SWAP1 POP JUMP JUMPDEST PUSH0 DUP2 SWAP1 POP DUP2 PUSH0 MSTORE PUSH1 0x20 PUSH0 KECCAK256 SWAP1 POP SWAP2 SWAP1 POP JUMP JUMPDEST PUSH0 PUSH1 0x20 PUSH1 0x1F DUP4 ADD DIV SWAP1 POP SWAP2 SWAP1 POP JUMP JUMPDEST PUSH0 DUP3 DUP3 SHL SWAP1 POP SWAP3 SWAP2 POP POP JUMP JUMPDEST PUSH0 PUSH1 0x8 DUP4 MUL PUSH2 0x977 PUSH32 0xFFFFFFFFFFFFFFFFFFFFFFFFFFFFFFFFFFFFFFFFFFFFFFFFFFFFFFFFFFFFFFFF DUP3 PUSH2 0x93C JUMP JUMPDEST PUSH2 0x981 DUP7 DUP4 PUSH2 0x93C JUMP JUMPDEST SWAP6 POP DUP1 NOT DUP5 AND SWAP4 POP DUP1 DUP7 AND DUP5 OR SWAP3 POP POP POP SWAP4 SWAP3 POP POP POP JUMP JUMPDEST PUSH0 DUP2 SWAP1 POP SWAP2 SWAP1 POP JUMP JUMPDEST PUSH0 PUSH2 0x9BC PUSH2 0x9B7 PUSH2 0x9B2 DUP5 PUSH2 0x450 JUMP JUMPDEST PUSH2 0x999 JUMP JUMPDEST PUSH2 0x450 JUMP JUMPDEST SWAP1 POP SWAP2 SWAP1 POP JUMP JUMPDEST PUSH0 DUP2 SWAP1 POP SWAP2 SWAP1 POP JUMP JUMPDEST PUSH2 0x9D5 DUP4 PUSH2 0x9A2 JUMP JUMPDEST PUSH2 0x9E9 PUSH2 0x9E1 DUP3 PUSH2 0x9C3 JUMP JUMPDEST DUP5 DUP5 SLOAD PUSH2 0x948 JUMP JUMPDEST DUP3 SSTORE POP POP POP POP JUMP JUMPDEST PUSH0 SWAP1 JUMP JUMPDEST PUSH2 0x9FD PUSH2 0x9F1 JUMP JUMPDEST PUSH2 0xA08 DUP2 DUP5 DUP5 PUSH2 0x9CC JUMP JUMPDEST POP POP POP JUMP JUMPDEST JUMPDEST DUP2 DUP2 LT ISZERO PUSH2 0xA2B JUMPI PUSH2 0xA20 PUSH0 DUP3 PUSH2 0x9F5 JUMP JUMPDEST PUSH1 0x1 DUP2 ADD SWAP1 POP PUSH2 0xA0E JUMP JUMPDEST POP POP JUMP JUMPDEST PUSH1 0x1F DUP3 GT ISZERO PUSH2 0xA70 JUMPI PUSH2 0xA41 DUP2 PUSH2 0x91B JUMP JUMPDEST PUSH2 0xA4A DUP5 PUSH2 0x92D JUMP JUMPDEST DUP2 ADD PUSH1 0x20 DUP6 LT ISZERO PUSH2 0xA59 JUMPI DUP2 SWAP1 POP JUMPDEST PUSH2 0xA6D PUSH2 0xA65 DUP6 PUSH2 0x92D JUMP JUMPDEST DUP4 ADD DUP3 PUSH2 0xA0D JUMP JUMPDEST POP POP JUMPDEST POP POP POP JUMP JUMPDEST PUSH0 DUP3 DUP3 SHR SWAP1 POP SWAP3 SWAP2 POP POP JUMP JUMPDEST PUSH0 PUSH2 0xA90 PUSH0 NOT DUP5 PUSH1 0x8 MUL PUSH2 0xA75 JUMP JUMPDEST NOT DUP1 DUP4 AND SWAP2 POP POP SWAP3 SWAP2 POP POP JUMP JUMPDEST PUSH0 PUSH2 0xAA8 DUP4 DUP4 PUSH2 0xA81 JUMP JUMPDEST SWAP2 POP DUP3 PUSH1 0x2 MUL DUP3 OR SWAP1 POP SWAP3 SWAP2 POP POP JUMP JUMPDEST PUSH2 0xAC1 DUP3 PUSH2 0x6B5 JUMP JUMPDEST PUSH8 0xFFFFFFFFFFFFFFFF DUP2 GT ISZERO PUSH2 0xADA JUMPI PUSH2 0xAD9 PUSH2 0x4FF JUMP JUMPDEST JUMPDEST PUSH2 0xAE4 DUP3 SLOAD PUSH2 0x8EB JUMP JUMPDEST PUSH2 0xAEF DUP3 DUP3 DUP6 PUSH2 0xA2F JUMP JUMPDEST PUSH0 PUSH1 0x20 SWAP1 POP PUSH1 0x1F DUP4 GT PUSH1 0x1 DUP2 EQ PUSH2 0xB20 JUMPI PUSH0 DUP5 ISZERO PUSH2 0xB0E JUMPI DUP3 DUP8 ADD MLOAD SWAP1 POP JUMPDEST PUSH2 0xB18 DUP6 DUP3 PUSH2 0xA9D JUMP JUMPDEST DUP7 SSTORE POP PUSH2 0xB7F JUMP JUMPDEST PUSH1 0x1F NOT DUP5 AND PUSH2 0xB2E DUP7 PUSH2 0x91B JUMP JUMPDEST PUSH0 JUMPDEST DUP3 DUP2 LT ISZERO PUSH2 0xB55 JUMPI DUP5 DUP10 ADD MLOAD DUP3 SSTORE PUSH1 0x1 DUP3 ADD SWAP2 POP PUSH1 0x20 DUP6 ADD SWAP5 POP PUSH1 0x20 DUP2 ADD SWAP1 POP PUSH2 0xB30 JUMP JUMPDEST DUP7 DUP4 LT ISZERO PUSH2 0xB72 JUMPI DUP5 DUP10 ADD MLOAD PUSH2 0xB6E PUSH1 0x1F DUP10 AND DUP3 PUSH2 0xA81 JUMP JUMPDEST DUP4 SSTORE POP JUMPDEST PUSH1 0x1 PUSH1 0x2 DUP9 MUL ADD DUP9 SSTORE POP POP POP JUMPDEST POP POP POP POP POP POP JUMP JUMPDEST PUSH0 DUP2 SWAP1 POP SWAP3 SWAP2 POP POP JUMP JUMPDEST PUSH0 PUSH2 0xB9B DUP3 PUSH2 0x6B5 JUMP JUMPDEST PUSH2 0xBA5 DUP2 DUP6 PUSH2 0xB87 JUMP JUMPDEST SWAP4 POP PUSH2 0xBB5 DUP2 DUP6 PUSH1 0x20 DUP7 ADD PUSH2 0x6CF JUMP JUMPDEST DUP1 DUP5 ADD SWAP2 POP POP SWAP3 SWAP2 POP POP JUMP JUMPDEST PUSH0 PUSH2 0xBCC DUP3 DUP5 PUSH2 0xB91 JUMP JUMPDEST SWAP2 POP DUP2 SWAP1 POP SWAP3 SWAP2 POP POP JUMP INVALID LOG2 PUSH5 0x6970667358 0x22 SLT KECCAK256 0xF8 CALLCODE PUSH3 0xE2FCAF EXTCODESIZE 0x22 0x2F 0xAC PC 0x4B PUSH29 0xBEE7AC68C71018160121101A8CE94092B0F39964736F6C634300081900 CALLER "
		},
		"gasEstimates": {
			"creation": {
				"codeDepositCost": "617000",
				"executionCost": "infinite",
				"totalCost": "infinite"
			},
			"external": {
				"addPerson(string,uint256)": "infinite",
				"nametoFavoriteNumber(string)": "infinite",
				"people(uint256)": "infinite",
				"person()": "infinite",
				"retrieve()": "2410",
				"store(uint256)": "22514"
			}
		},
		"methodIdentifiers": {
			"addPerson(string,uint256)": "6f760f41",
			"nametoFavoriteNumber(string)": "7a857f37",
			"people(uint256)": "9e7a13ad",
			"person()": "77ec2b55",
			"retrieve()": "2e64cec1",
			"store(uint256)": "6057361d"
		}
	},
	"abi": [
		{
			"inputs": [
				{
					"internalType": "string",
					"name": "_name",
					"type": "string"
				},
				{
					"internalType": "uint256",
					"name": "_favoriteNumber",
					"type": "uint256"
				}
			],
			"name": "addPerson",
			"outputs": [
				{
					"components": [
						{
							"internalType": "uint256",
							"name": "favoriteNumber",
							"type": "uint256"
						},
						{
							"internalType": "string",
							"name": "name",
							"type": "string"
						}
					],
					"internalType": "struct SimpleStorage.People[]",
					"name": "",
					"type": "tuple[]"
				}
			],
			"stateMutability": "nonpayable",
			"type": "function"
		},
		{
			"inputs": [
				{
					"internalType": "string",
					"name": "",
					"type": "string"
				}
			],
			"name": "nametoFavoriteNumber",
			"outputs": [
				{
					"internalType": "uint256",
					"name": "",
					"type": "uint256"
				}
			],
			"stateMutability": "view",
			"type": "function"
		},
		{
			"inputs": [
				{
					"internalType": "uint256",
					"name": "",
					"type": "uint256"
				}
			],
			"name": "people",
			"outputs": [
				{
					"internalType": "uint256",
					"name": "favoriteNumber",
					"type": "uint256"
				},
				{
					"internalType": "string",
					"name": "name",
					"type": "string"
				}
			],
			"stateMutability": "view",
			"type": "function"
		},
		{
			"inputs": [],
			"name": "person",
			"outputs": [
				{
					"internalType": "uint256",
					"name": "favoriteNumber",
					"type": "uint256"
				},
				{
					"internalType": "string",
					"name": "name",
					"type": "string"
				}
			],
			"stateMutability": "view",
			"type": "function"
		},
		{
			"inputs": [],
			"name": "retrieve",
			"outputs": [
				{
					"internalType": "uint256",
					"name": "",
					"type": "uint256"
				}
			],
			"stateMutability": "view",
			"type": "function"
		},
		{
			"inputs": [
				{
					"internalType": "uint256",
					"name": "_favoriteNumber",
					"type": "uint256"
				}
			],
			"name": "store",
			"outputs": [],
			"stateMutability": "nonpayable",
			"type": "function"
		}
	]
}